:100000000C9434000C9446000C9446000C9446006A
:100010000C9446000C9446000C9446000C94350158
:100020000C9446000C9446000C9446000C94460038
:100030000C9446000C9446000C9446000C94460028
:100040000C9446000C9446000C9446000C94460018
:100050000C9446000C9446000C9446000C94460008
:100060000C9446000C94460011241FBECFEFD8E03C
:10007000DEBFCDBF21E0A0E0B1E001C01D92A43001
:10008000B207E1F70E9458010C948D010C94000016
:10009000CF93DF93FC01DC01179685E0ED01199207
:1000A0008A95E9F789E290E02BE230E04AE250E0FD
:1000B000683080F0685083E290E025E230E044E26E
:1000C00050E0663038F060E080E090E020E030E022
:1000D00040E050E0518340833383228395838483BF
:1000E0006683CF01DF91CF910895FC01A081B1819A
:1000F000109709F182819381892BE9F04C918681D7
:1001000021E030E0B90102C0660F771F8A95E2F75F
:10011000CB01809584238C93A281B3818C919681AD
:1001200001C0220F9A95EAF7822B8C9317821086D2
:1001300011861286138608951F93CF93DF93EC01E7
:10014000EC81FD8180E03097B1F0808190E02E81DC
:1001500002C0959587952A95E2F780959095182F7E
:1001600011700E94CB00282F8F81811721F06887A2
:1001700079872A879B87DF91CF911F91089582E02D
:100180008093B00094E09093B1008093700089EF69
:100190008093B30008952FB7F89460910001709197
:1001A000010180910201909103012FBF0895E4E6BF
:1001B000F0E080818F7B8083E0E7F0E080818260E7
:1001C00080830895E0E7F0E080818D7F8083E4E61E
:1001D000F0E080818064808308958FB7F894109256
:1001E00000011092010110920201109203018FBFD1
:1001F00008950F931F938B019C014FB7F894809142
:10020000000190910101A0910201B0910301800FC2
:10021000911FA21FB31F8093000190930101A0932F
:100220000201B09303014FBF1F910F9108950F93E7
:100230001F938B019C014FB7F8948091000190911E
:100240000101A0910201B0910301801B910BA20B4F
:10025000B30B8093000190930101A0930201B0932E
:1002600003014FBF1F910F9108951F921FB61F9258
:1002700011248F939F93AF93BF938091000190912E
:100280000101A0910201B09103010196A11DB11DD0
:100290008093000190930101A0930201B0930301A8
:1002A000BF91AF919F918F911F901FBE1F90189586
:1002B000CDB7DEB72C970FB6F894DEBF0FBECDBF1B
:1002C000259A0E94BF0062E08E010F5F1F4FC80198
:1002D0000E944800C8010E947500F12CE12E10E236
:1002E00042E350E060E070E0802F9E2D0E949C0071
:1002F000811529F0F11003C095B1912795B92FEF21
:1003000039E698E1215030409040E1F700C000000C
:0E03100095B1912795B9F82EE3CFF894FFCF61
:00000001FF
